:100000000C9434000C9482000C9451000C94510018
:100010000C9451000C9451000C9451000C9451001C
:100020000C9451000C9451000C9451000C94DD047C
:100030000C94E8040C94D1040C942E010C945100FF
:100040000C9451000C9451000C9451000C945100EC
:100050000C943F020C9453000C9451000C945100EA
:100060000C9451000C94510011241FBECFEFD8E026
:10007000DEBFCDBF13E0A0E0B1E0ECE1F7E102C0EC
:1000800005900D92A434B107D9F724E0A4E4B3E0BD
:1000900001C01D92AD3EB207E1F70E947E020C94B2
:1000A0008C0B0C9400001F920F920FB60F9211242C
:1000B0008F9380917800809344038091440386FB62
:1000C000882780F9809344038091790080934503C9
:1000D0008F910F900FBE0F901F901895811109C03E
:1000E00052985A9880916900611104C0826080938F
:1000F000690008958360809369000895811101C0AB
:10010000E89A08951F920F920FB60F9211242F9321
:100110003F934F935F936F937F938F939F93AF938F
:10012000BF93EF93FF930E949003FF91EF91BF91D4
:10013000AF919F918F917F916F915F914F913F917F
:100140002F910F900FBE0F901F90189581E0809314
:10015000590415BCEEE6F0E0108216BC82E084BDC6
:100160009CE997BD808383E085BD0895CF92DF929F
:10017000FF920F931F93CF93DF93F22E68011FB767
:10018000F8949DE0899FE0011124C75ADB4F188243
:1001900019821B821C821D821E82CB01BA012AE0B9
:1001A00030E040E050E00E9489082F83388749877B
:1001B0005A87DC86CB86FA821FBFDF91CF911F91D1
:1001C0000F91FF90DF90CF9008950F931F932FB75B
:1001D000F8940DE0809FF0011124E75AFB4F8381D2
:1001E0009481A581B68131E030831182138214821B
:1001F0001582168217821086118612862FBF880FED
:10020000991FAA1FBB1FAC01BD01440F551F661FDC
:10021000771F440F551F661F771F8C019D01040F28
:10022000151F261F371FC901B8011F910F9108958F
:100230008FB7F89490915A04992371F010925A0450
:100240008FBF8091640490916504892B31F0E09117
:100250006404F091650409948FBF08951F920F9272
:100260000FB60F9211244F935F936F937F938F93E9
:100270009F93AF93BF9380915904811141C08091A6
:100280005C0490915D04A0915E04B0915F040196BE
:10029000A11DB11D80935C0490935D04A0935E0446
:1002A000B0935F0440915C0450915D0460915E04E2
:1002B00070915F048091600490916104A091620448
:1002C000B0916304481759076A077B07C8F010927A
:1002D0005C0410925D0410925E0410925F0481E051
:1002E00080935A0490915B0491110AC08093590441
:1002F00010926004109261041092620410926304E0
:10030000BF91AF919F918F917F916F915F914F912D
:100310000F900FBE0F901F901895CF93DF93CDB71E
:10032000DEB7AE014B5F5F4FFA0161917191AF0192
:1003300086E694E00E94BA08682F86E694E00E9460
:10034000DD0162E086E091E00E94DD01DF91CF9166
:10035000089588E493E090930301809302019093C1
:10036000010180930001109247038FEF80934603B1
:1003700089E18093C4001092C500599A519AE4E62D
:10038000F0E080818D7F8083E1ECF0E08081886007
:1003900080838081806480830895599A519AE4E62D
:1003A000F0E080818D7F8083E1ECF0E080818860E7
:1003B00080838081806480830895009709F45BC006
:1003C000662309F458C03FB7F8942091460362179A
:1003D00048F070E0621B710961507109860F971F28
:1003E0006FEF620F3FBF5FB7F89420910201309129
:1003F000030140914603461B409346035FBF6623BB
:10040000B9F0FC0108C0D9019D012F5F3F4F8191D8
:100410008C93615069F084E028343807A1F7A8E490
:10042000B3E09D012F5F3F4F81918C93615099F70D
:100430008FB7F89430930301209302018FBF8FB7D9
:10044000F89490914703911115C091E09093470360
:10045000E0910001F091010194E0E834F90761F0C6
:100460009F012F5F3F4F3093010120930001908146
:100470009093C6008FBF0895E8E4F3E0F1CF1F9298
:100480000F920FB60F9211248F939F93EF93FF93C8
:10049000E0910001F091010180910201909103012E
:1004A0008E179F07F1F084E0E834F807B9F0CF0128
:1004B0000196909301018093000180818093C60092
:1004C000809146038F5F80934603FF91EF919F9148
:1004D0008F910F900FBE0F901F901895E8E4F3E0F6
:1004E000E6CF10924703809146038F5F80934603C7
:1004F0008091C00080648093C000E7CF8FEF80932D
:100500006400809164008D7F80936400809164001A
:100510008F7D8093640080916400877F8093640066
:100520003A984298389840983B984398399841981F
:100530002A98229A2998219A5E98569A5D98559AF7
:100540005C9A549A5F98579A5B98539A2898209A85
:100550002A9829985E985D985C9A5F985B9828988D
:100560002A9A299A5E9A5D9A87EA91E60197F1F7AD
:1005700000C000002A9829985E985D989FE52AEEB1
:1005800080E0915020408040E1F700C000002A9AAE
:10059000299A5E9A5D9A87EA91E60197F1F700C081
:1005A00000002A9829985E985D980E94A60061E054
:1005B00080E00E946E0080E00E947E000E94A901FF
:1005C0000E94CD0178941F921F928FE091E09F933B
:1005D0008F930E948D0181E291E09F938F938AE235
:1005E00091E09F938F9386E391E09F938F930E9476
:1005F0008D018DB79EB70A960FB6F8949EBF0FBEB9
:100600008DBF0E9418010E9494030E9427040E943B
:10061000F304F7CF9F92AF92BF92CF92DF92EF9207
:10062000FF920F931F93CF93DF930AE414E089E4C2
:10063000E82E84E0F82EC0E097E5C92E91E0D92E8F
:10064000D3E027E4A22E21E0B22E32E0932EF8016F
:1006500080818130A1F0CF5F0C5F1F4FF4E0EF0E7F
:10066000F11CC430A1F7DF91CF911F910F91FF9042
:10067000EF90DF90CF90BF90AF909F900895CC23E4
:1006800009F448C0C13081F1C23009F446C0319B41
:100690002DC0F701428153819A01A4E6B0E00E9487
:1006A000AB086C3D75408105910530F44F5F5F4F9D
:1006B000F70153834283CFCF80E00E94E500809111
:1006C0004C048F9380914B048F93DF92CF920E94C2
:1006D0008D01F701108213821282F801D0830F90EE
:1006E0000F900F900F90B7CF3099D3CF80E00E943A
:1006F000E5001F921F92BF92AF920E948D01F701F9
:10070000108213821282F80190820F900F900F9046
:100710000F90A1CF329BEACFBCCF339BE7CFB9CFAD
:1007200081E08093480408950F931F93CF939FB760
:10073000F894809148049FBF882309F465C0329BD8
:100740001DC00AE013E021E044E650E060E070E004
:1007500080E00E94B6001F921F9283E791E09F9372
:100760008F930E948D0181E08093490480934A0415
:10077000109205010F900F900F900F90309B1DC0AD
:100780000AE013E021E044E650E060E070E080E041
:100790000E94B6001F92C1E0CF9383E791E09F9340
:1007A0008F930E948D01C0934D04C0934E0410920C
:1007B00005010F900F900F900F90339929C0319B36
:1007C0001EC00AE013E021E044E650E060E070E083
:1007D00080E00E94B6001F9283E08F9383E791E050
:1007E0009F938F930E948D0181E0809355048093A5
:1007F0005604109205010F900F900F900F908FB735
:10080000F894109248048FBFCF911F910F910895D3
:100810000AE013E021E044E650E060E070E080E0B0
:100820000E94B6001F9282E08F9383E791E09F932E
:100830008F930E948D0181E0809351048093520434
:10084000109205010F900F900F900F90B8CF8091EC
:100850004A04823061F1833009F478C080914E04FB
:100860008230D1F1833009F478C080915204823013
:1008700009F448C0833009F457C08091560482308F
:1008800009F47DC0833009F00895109256041F9238
:100890001F9289E192E09F938F930E948D0181E0E6
:1008A0008093EB040F900F900F900F90089510928B
:1008B0004A041F921F9285E891E09F938F930E94B4
:1008C0008D0181E08093E6040F900F900F900F90C0
:1008D00080914E04823031F610924E041F921F9286
:1008E0008AEA91E09F938F930E948D0181E080932B
:1008F000E9040F900F900F900F9080915204823076
:1009000009F0B8CF109252041F921F9287ED91E028
:100910009F938F930E948D0181E08093E7040F9055
:100920000F900F900F90A9CF109252041F921F9218
:100930008DEE91E09F938F930E948D0181E08093D3
:10094000EA040F900F900F900F9097CF10924A04E7
:100950001F921F9288E991E0B0CF10924E041F922F
:100960001F9281EC91E09F938F930E948D0181E013
:100970008093E8040F900F900F900F9076CF109215
:1009800056041F921F9282E092E09F938F930E94E1
:100990008D0181E08093EC040F900F900F900F90E9
:1009A00008951F920F920FB60F9211245B9A289A06
:1009B0000F900FBE0F901F9018951F920F920FB6B9
:1009C0000F9211245B980F900FBE0F901F901895F7
:1009D0001F920F920FB60F92112428980F900FBEFE
:1009E0000F901F901895CF93DF938091E6048111AB
:1009F000F5C28091E904882309F46CC01092E904DF
:100A0000E4E0F3E044E650E01A9B43C02A98DF019B
:100A1000208131812115310501F180E090E061E212
:100A20006A95F1F70000019682179307C1F715C088
:100A300080E090E0C1E2CA95F1F7000001968217CC
:100A40009307C1F783E0E434F80799F02A98DF01AF
:100A5000208131812115310501F72A9A32968D9135
:100A60009C919A01281B390B19F783E0E434F807AD
:100A700069F72A9823C080E090E061E26A95F1F777
:100A80000000019682179307C1F723E0E434F207D0
:100A9000A1F02A9ADF01208131812115310509F069
:100AA00044C02A9832968D919C919A01281B390B4B
:100AB00011F723E0E434F20761F72A9A1F921F929C
:100AC0008DE492E09F938F930E948D010F900F9081
:100AD0000F900F908091E804882309F474C010925D
:100AE000E804E4E0F3E064E670E0199B2FC043E023
:100AF0000BC0299A808191819B01281B390B09F039
:100B000042C0415009F44CC02998208131812115FF
:100B1000310579F380E090E0C1E2CA95F1F7000079
:100B2000019682179307C1F7E4CF80E090E0D1E20D
:100B3000DA95F1F70000019682179307C1F7B1CF5C
:100B40003296D3E0E434FD0709F446C243E00AC01C
:100B50002998808191819B01281B390B09F05EC087
:100B6000415071F3299A208131812115310581F39A
:100B700080E090E051E25A95F1F70000019682176B
:100B80009307C1F7E5CF80E090E0D1E2DA95F1F785
:100B90000000019682179307C1F7415009F0B4CFC6
:100BA000329623E0E434F20709F0A1CF29981F928E
:100BB0001F928BE692E09F938F930E948D010F907E
:100BC0000F900F900F908091E704882309F474C070
:100BD0001092E704E4E0F3E064E670E04E9B2FC07F
:100BE00043E00BC05E9A808191819B01281B390BE9
:100BF00009F042C0415009F44CC05E982081318117
:100C00002115310579F380E090E051E25A95F1F732
:100C10000000019682179307C1F7E4CF80E090E0CF
:100C2000C1E2CA95F1F70000019682179307C1F758
:100C300097CF3296D3E0E434FD0709F4CBC143E00B
:100C40000AC05E98808191819B01281B390B09F0B5
:100C50005EC0415071F35E9A2081318121153105CA
:100C600081F380E090E051E25A95F1F7000001969F
:100C700082179307C1F7E5CF80E090E0C1E2CA9503
:100C8000F1F70000019682179307C1F7415009F070
:100C9000B4CF3296D3E0E434FD0709F0A1CF5E98DB
:100CA0001F921F928AE892E09F938F930E948D017A
:100CB0000F900F900F900F908091EA04882309F411
:100CC00074C01092EA04E4E0F3E064E670E04E9B46
:100CD0002FC043E00BC05E9A808191819B01281B4D
:100CE000390B09F042C0415009F44CC05E98208194
:100CF00031812115310579F380E090E051E25A9578
:100D0000F1F70000019682179307C1F7E4CF80E066
:100D100090E0C1E2CA95F1F70000019682179307AF
:100D2000C1F797CF3296D3E0E434FD0709F450C100
:100D300043E00AC05E98808191819B01281B390B9A
:100D400009F05EC0415071F35E9A20813181211516
:100D5000310581F380E090E051E25A95F1F700000F
:100D6000019682179307C1F7E5CF80E090E0C1E2DA
:100D7000CA95F1F70000019682179307C1F7415019
:100D800009F0B4CF3296D3E0E434FD0709F0A1CFE7
:100D90005E981F921F9288EA92E09F938F930E9421
:100DA0008D010F900F900F900F908091EC0488238D
:100DB00009F474C01092EC04E4E0F3E064E670E03F
:100DC0004D9B2FC043E00BC05D9A808191819B01B8
:100DD000281B390B09F042C0415009F44CC05D9802
:100DE000208131812115310579F380E090E051E2D5
:100DF0005A95F1F70000019682179307C1F7E4CFE7
:100E000080E090E0C1E2CA95F1F7000001968217F8
:100E10009307C1F797CF3296D3E0E434FD0709F486
:100E2000D5C043E00AC05D98808191819B01281B59
:100E3000390B09F05EC0415071F35D9A2081318118
:100E40002115310581F380E090E051E25A95F1F7E8
:100E50000000019682179307C1F7E5CF80E090E08C
:100E6000C1E2CA95F1F70000019682179307C1F716
:100E7000415009F0B4CF3296D3E0E434FD0709F0D5
:100E8000A1CF5D981F921F9286EC92E09F938F9363
:100E90000E948D010F900F900F900F908091EB04A6
:100EA000882309F474C01092EB04E4E0F3E064E6F4
:100EB00070E04D9B2FC043E00BC05D9A8081918113
:100EC0009B01281B390B09F042C0415009F44CC06A
:100ED0005D98208131812115310579F380E090E022
:100EE00051E25A95F1F70000019682179307C1F776
:100EF000E4CF80E090E0C1E2CA95F1F700000196EE
:100F000082179307C1F797CF3296D3E0E434FD07F9
:100F100009F45AC043E00AC05D98808191819B0129
:100F2000281B390B09F045C0415071F35D9A2081AF
:100F300031812115310581F380E090E051E25A952D
:100F4000F1F70000019682179307C1F7E5CF80E023
:100F500090E0C1E2CA95F1F700000196821793076D
:100F6000C1F7415009F0B4CF3296D3E0E434FD0725
:100F700009F0A1CF5D981F921F9285EE92E09F939A
:100F80008F930E948D010F900F900F900F90809182
:100F9000050181110BC01A9909C0199907C04E9912
:100FA00005C04D9903C081E080930501DF91CF9189
:100FB000089580E090E0C1E2CA95F1F70000019643
:100FC00082179307C1F7B0CF5D9AD5CF5D9A5ACFFC
:100FD0005E9ADFCE5E9A64CE299AE9CD1092E6043D
:100FE000B3B1B470A3B1A270F9B1F074E9B1E07219
:100FF0002A9829985E985D985B98289810928100AD
:1010000080E29EE4909387008093860080910401A3
:10101000811146C08CEB92E0909389008093880008
:101020008CEA98E090938B0080938A0087E080930D
:101030006F0082E08093800089E1809381005C985A
:101040008CEF98E068EB7BE048E65BE016C090939D
:101050008900809388009A01281B390B30938B00FC
:1010600020938A00C7E8D3E12197F1F700C0000080
:101070004497883AD2E09D0701F1209104012111A3
:10108000E6CF9B01281B390B309389002093880001
:101090009C012055310930938B0020938A00E2CFC8
:1010A0008CEF98E090938900809388008CE692E022
:1010B00090938B0080938A00B9CF109281005B9847
:1010C00028985C9AB11123C0A1111FC0F1111BC057
:1010D000E11117C080910401811110C081E080935B
:1010E00004011F921F928FE292E09F938F930E94C0
:1010F0008D010F900F900F900F907BCC10920401F8
:10110000F0CF5D9AE7CF5E9AE3CF299ADFCF2A9A94
:10111000DBCFA1E21A2EAA1BBB1BFD010DC0AA1F2B
:10112000BB1FEE1FFF1FA217B307E407F50720F050
:10113000A21BB30BE40BF50B661F771F881F991FCB
:101140001A9469F760957095809590959B01AC0114
:10115000BD01CF010895A29FB001B39FC001A39F1D
:10116000700D811D1124911DB29F700D811D1124E0
:10117000911D0895AEE0B0E0E0ECF8E00C94630B54
:101180008C0186E08C831A8309838FEF9FE79E830F
:101190008D83CE0101960E94D7082F813885F801F2
:1011A000E20FF31F10822E96E4E00C947F0BACE06C
:1011B000B0E0EDEDF8E00C94550B7C016B018A0179
:1011C000FC0117821682838181FFBDC1CE01019689
:1011D0004C01F7019381F60193FD859193FF819175
:1011E0006F01882309F4ABC1853239F493FD8591F1
:1011F00093FF81916F01853229F4B70190E00E943D
:10120000BF0AE7CF512C312C20E02032A0F48B32E2
:1012100069F030F4803259F0833269F420612CC0D7
:101220008D3239F0803339F4216026C02260246089
:1012300023C0286021C027FD27C030ED380F3A3089
:1012400078F426FF06C0FAE05F9E300D1124532E7D
:1012500013C08AE0389E300D1124332E20620CC05A
:101260008E3221F426FD6BC1206406C08C3611F449
:10127000206802C0883641F4F60193FD859193FF02
:1012800081916F018111C1CF982F9F7D955493302B
:1012900028F40C5F1F4FFFE3F9830DC0833631F054
:1012A000833771F0833509F05BC022C0F80180817B
:1012B00089830E5F1F4F44244394512C540115C061
:1012C0003801F2E06F0E711CF801A080B18026FF9A
:1012D00003C0652D70E002C06FEF7FEFC5012C8762
:1012E0000E94B40A2C0183012C852F77222E17C06F
:1012F0003801F2E06F0E711CF801A080B18026FF6A
:1013000003C0652D70E002C06FEF7FEFC5012C8731
:101310000E94A90A2C012C852068222E830123FC1F
:101320001BC0832D90E048165906B0F4B70180E247
:1013300090E00E94BF0A3A94F4CFF50127FC859112
:1013400027FE81915F01B70190E00E94BF0A311032
:101350003A94F1E04F1A51084114510471F7E5C075
:10136000843611F0893639F5F80127FF07C060810E
:101370007181828193810C5F1F4F08C060817181F0
:10138000072E000C880B990B0E5F1F4F2F76722EC5
:1013900097FF09C090958095709561957F4F8F4F0D
:1013A0009F4F2068722E2AE030E0A4010E94F70AC5
:1013B000A82EA81844C0853729F42F7EB22E2AE023
:1013C00030E025C0F22FF97FBF2E8F36C1F018F420
:1013D000883579F0B4C0803719F0883721F0AFC074
:1013E0002F2F2061B22EB4FE0DC08B2D8460B82E3D
:1013F00009C024FF0AC09F2F9660B92E06C028E0BE
:1014000030E005C020E130E002C020E132E0F80128
:10141000B7FE07C060817181828193810C5F1F4F8D
:1014200006C06081718180E090E00E5F1F4FA401D3
:101430000E94F70AA82EA818FB2DFF777F2E76FEB4
:101440000BC0372D3E7FA51450F474FE0AC072FC09
:1014500008C0372D3E7E05C0BA2C372D03C0BA2CEC
:1014600001C0B52C34FF0DC0FE01EA0DF11D8081D5
:10147000803311F4397E09C032FF06C0B394B394AF
:1014800004C0832F867809F0B39433FD13C030FF76
:1014900006C05A2CB31418F4530C5B18B32CB314B5
:1014A00068F4B70180E290E03C870E94BF0AB394E1
:1014B0003C85F5CFB31410F43B1801C0312C34FF38
:1014C00012C0B70180E390E03C870E94BF0A3C85D0
:1014D00032FF17C031FD03C088E790E002C088E505
:1014E00090E0B7010CC0832F867859F031FF02C01D
:1014F0008BE201C080E237FD8DE2B70190E00E94EF
:10150000BF0AA51438F4B70180E390E00E94BF0A37
:101510005A94F7CFAA94F401EA0DF11D8081B70126
:1015200090E00E94BF0AA110F5CF332009F451CEFC
:10153000B70180E290E00E94BF0A3A94F6CFF7012B
:101540008681978102C08FEF9FEF2C96E2E10C9489
:10155000710BFC010590615070400110D8F7809527
:1015600090958E0F9F1F0895FC016150704001906F
:101570000110D8F7809590958E0F9F1F08950F93B7
:101580001F93CF93DF93FB01238121FD03C08FEFD6
:101590009FEF28C022FF16C04681578124813581E4
:1015A0004217530744F4A081B1819D012F5F3F4F43
:1015B000318320838C93268137812F5F3F4F378380
:1015C000268310C0EB01092F182F0084F185E02D30
:1015D0000995892BE1F68E819F8101969F838E83E9
:1015E000812F902FDF91CF911F910F910895FA01D4
:1015F000AA27283051F1203181F1E8946F936E7F52
:101600006E5F7F4F8F4F9F4FAF4FB1E03ED0B4E042
:101610003CD0670F781F891F9A1FA11D680F791F83
:101620008A1F911DA11D6A0F711D811D911DA11D94
:1016300020D009F468943F912AE0269F11243019A4
:10164000305D3193DEF6CF010895462F4770405D3F
:101650004193B3E00FD0C9F7F6CF462F4F70405DEE
:101660004A3318F0495D31FD4052419302D0A9F749
:10167000EACFB4E0A6959795879577956795BA9543
:10168000C9F700976105710508959B01AC010A2E09
:1016900006945795479537952795BA95C9F7620FE0
:1016A000731F841F951FA01D08952F923F924F9284
:1016B0005F926F927F928F929F92AF92BF92CF92E2
:1016C000DF92EF92FF920F931F93CF93DF93CDB7EB
:1016D000DEB7CA1BDB0B0FB6F894DEBF0FBECDBF63
:1016E00009942A88398848885F846E847D848C8434
:1016F0009B84AA84B984C884DF80EE80FD800C813D
:101700001B81AA81B981CE0FD11D0FB6F894DEBF1F
:0C1710000FBECDBFED010895F894FFCF8F
:10171C004803480301010A0D002530325820000D02
:10172C000A0D0A49524F4E204D414E2053554954F3
:10173C000031373A33333A3331004A616E20323755
:10174C00203230313600436F6D70696C65643A201D
:10175C0025732C20257300427574746F6E2072658E
:10176C006C656173656400427574746F6E20746986
:10177C006D656F75742028636F756E7465722025A6
:10178C00642900427574746F6E2025642070726534
:10179C00737365640048656C6D65742073686F7253
:1017AC007420636C69636B0048656C6D6574206CA8
:1017BC006F6E6720636C69636B00457965732F43AB
:1017CC00686573742073686F727420636C69636BE3
:1017DC0000457965732F4368657374206C6F6E6771
:1017EC0020636C69636B004C6566742068616E6481
:1017FC002073686F727420636C69636B004C656650
:10180C00742068616E64206C6F6E6720636C696312
:10181C006B0052696768742068616E642073686F2E
:10182C00727420636C69636B00526967687420681A
:10183C00616E64206C6F6E6720636C69636B00452E
:10184C0076656E74202868656C6D65745F6D6F7657
:10185C0065292070726F63657373656400457665E6
:10186C006E742028657965735F746F67676C652982
:10187C002070726F636573736564004576656E7472
:10188C00202863686573745F746F67676C652920C3
:10189C0070726F636573736564004576656E742052
:1018AC00286C6566745F746F67676C65292070724D
:1018BC006F636573736564004576656E7420286C80
:1018CC006566745F656666656374292070726F6304
:1018DC006573736564004576656E7420287269675C
:1018EC0068745F746F67676C65292070726F6365CD
:1018FC0073736564004576656E7420287269676839
:10190C00745F656666656374292070726F636573B6
:10191C007365640001000100020002000300030073
:10192C0004000500060008000A000B000D000F0063
:10193C001100140017001C001F00220024002700B7
:10194C002B002F00330038003D0043004B005100AA
:04195C0058006000CF
:00000001FF
